:020000040800F2
:1000000000800020191D0008AD190008AF19000874
:10001000B1190008B3190008B51900080000000064
:10002000000000000000000000000000B7190008F8
:10003000B919000800000000BB190008BD1900082C
:10004000691D0008691D0008691D0008691D000878
:10005000691D0008691D0008691D0008691D000868
:10006000691D0008691D0008691D0008691D000858
:10007000691D0008691D0008691D0008691D000848
:10008000691D000800000000691D0008691D0008C6
:10009000C5190008691D0008691D0008691D0008D0
:1000A000691D0008691D0008691D0008691D000818
:1000B000691D0008691D0008691D0008691D000808
:1000C000691D0008691D0008691D0008691D0008F8
:1000D000691D0008691D0008691D0008691D0008E8
:1000E000691D0008691D0008691D0008691D0008D8
:1000F000691D0008691D0008691D00080000000056
:1001000000000000691D000800000000691D0008D3
:10011000691D000800000000691D0008691D000835
:10012000691D0008691D0008691D0008691D000897
:10013000691D00080000000000000000691D0008A3
:10014000691D0008691D0008000000000000000093
:10015000000000000000000000000000000000009F
:10016000000000000000000000000000691D000801
:10017000691D0008000000000000000000000000F1
:1001800000000000691D00080000000000000000E1
:10019000000000000000000000000000000000005F
:1001A0000000000000000000691D0008691D000833
:1001B000691D0008691D0008691D00080000000095
:1001C00000000000691D00080000000000000000A1
:0801D000691D0008691D00080B
:1002000010B5054C237833B9044B13B10448AFF350
:1002100000800123237010BD300B0020000000007F
:10022000E8CB000808B5034B1BB103490348AFF303
:10023000008008BD00000000340B0020E8CB00085F
:1002400081F0004102E000BF83F0004330B54FEA87
:1002500041044FEA430594EA050F08BF90EA020FF4
:100260001FBF54EA000C55EA020C7FEA645C7FEA87
:10027000655C00F0E2804FEA5454D4EB5555B8BFAA
:100280006D420CDD2C4480EA020281EA030382EA1B
:10029000000083EA010180EA020281EA0303362DAD
:1002A00088BF30BD11F0004F4FEA01314FF4801C80
:1002B0004CEA113102D0404261EB410113F0004F92
:1002C0004FEA03334CEA133302D0524263EB430349
:1002D00094EA050F00F0A780A4F10104D5F1200EE7
:1002E0000DDB02FA0EFC22FA05F2801841F1000142
:1002F00003FA0EF2801843FA05F359410EE0A5F116
:1003000020050EF1200E012A03FA0EFC28BF4CF046
:10031000020C43FA05F3C01851EBE37101F00045FC
:1003200007D54FF0000EDCF1000C7EEB00006EEB09
:100330000101B1F5801F1BD3B1F5001F0CD3490893
:100340005FEA30004FEA3C0C04F101044FEA4452EA
:1003500012F5800F80F09A80BCF1004F08BF5FEA71
:10036000500C50F1000041EB045141EA050130BD51
:100370005FEA4C0C404141EB0101013C28BFB1F563
:10038000801FE9D291F0000F04BF01460020B1FAAE
:1003900081F308BF2033A3F10B03B3F120020CDA81
:1003A0000C3208DD02F1140CC2F10C0201FA0CF05F
:1003B00021FA02F10CE002F11402D8BFC2F1200CC4
:1003C00001FA02F120FA0CFCDCBF41EA0C0190407A
:1003D000E41AA2BF01EB0451294330BD6FEA0404C3
:1003E0001F3C1CDA0C340EDC04F11404C4F12002AE
:1003F00020FA04F001FA02F340EA030021FA04F3C0
:1004000045EA030130BDC4F10C04C4F1200220FA16
:1004100002F001FA04F340EA0300294630BD21FA54
:1004200004F0294630BD94F0000F83F4801306BF1A
:1004300081F480110134013D4EE77FEA645C18BF0E
:100440007FEA655C29D094EA050F08BF90EA020FA5
:1004500005D054EA000C04BF1946104630BD91EA9D
:10046000030F1EBF0021002030BD5FEA545C05D1A0
:100470004000494128BF41F0004130BD14F58004DF
:100480003CBF01F5801130BD01F0004545F0FE4153
:1004900041F470014FF0000030BD7FEA645C1ABF88
:1004A000194610467FEA655C1CBF0B46024650EABF
:1004B000013406BF52EA033591EA030F41F40021EB
:1004C00030BD00BF90F0000F04BF0021704730B571
:1004D0004FF4806404F132044FF000054FF0000146
:1004E00050E700BF90F0000F04BF0021704730B507
:1004F0004FF4806404F1320410F0004548BF4042DC
:100500004FF000013EE700BF42004FEAE2014FEA30
:1005100031014FEA02701FBF12F07F4393F07F4F0B
:1005200081F06051704732F07F4208BF704793F00E
:100530007F4F04BF41F40021704730B54FF4607421
:1005400001F0004521F000411CE700BF50EA010224
:1005500008BF704730B54FF000050AE050EA0102CD
:1005600008BF704730B511F0004502D5404261EB3D
:1005700041014FF4806404F132045FEA915C3FF47E
:10058000D8AE4FF003025FEADC0C18BF03325FEA1B
:10059000DC0C18BF033202EBDC02C2F1200300FACC
:1005A00003FC20FA02F001FA03FE40EA0E0021FAF1
:1005B00002F11444BDE600BF80F0004002E000BF3D
:1005C00081F0004142001FBF5FEA410392EA030F3E
:1005D0007FEA226C7FEA236C6AD04FEA1262D2EB88
:1005E0001363C1BFD218414048404140B8BF5B428D
:1005F000192B88BF704710F0004F40F4000020F026
:100600007F4018BF404211F0004F41F4000121F03B
:100610007F4118BF494292EA030F3FD0A2F1010285
:1006200041FA03FC10EB0C00C3F1200301FA03F1C3
:1006300000F0004302D5494260EB4000B0F5000FE6
:1006400013D3B0F1807F06D340084FEA310102F1A5
:100650000102FE2A51D2B1F1004F40EBC25008BF57
:1006600020F0010040EA03007047490040EB000021
:10067000013A28BFB0F5000FEDD2B0FA80FCACF122
:10068000080CB2EB0C0200FA0CF0AABF00EBC2504F
:1006900052421843BCBFD0401843704792F0000F3D
:1006A00081F4000106BF80F400000132013BB5E790
:1006B0004FEA41037FEA226C18BF7FEA236C21D006
:1006C00092EA030F04D092F0000F08BF084670476B
:1006D00090EA010F1CBF0020704712F07F4F04D139
:1006E000400028BF40F00040704712F100723CBF4C
:1006F00000F50000704700F0004343F0FE4040F476
:10070000000070477FEA226216BF08467FEA236333
:100710000146420206BF5FEA412390EA010F40F41E
:10072000800070474FF0000304E000BF10F000436A
:1007300048BF40425FEA000C08BF704743F0964351
:1007400001464FF000001CE050EA010208BF70476C
:100750004FF000030AE000BF50EA010208BF7047F3
:1007600011F0004302D5404261EB41015FEA010C08
:1007700002BF84460146002043F0B64308BFA3F100
:100780008053A3F50003BCFA8CF2083AA3EBC253E2
:1007900010DB01FA02FC634400FA02FCC2F1200201
:1007A000BCF1004F20FA02F243EB020008BF20F038
:1007B0000100704702F1200201FA02FCC2F120029E
:1007C00050EA4C0021FA02F243EB020008BF20EA93
:1007D000DC7070474FF0FF0C1CEAD0521EBF1CEAC1
:1007E000D15392EA0C0F93EA0C0F6FD01A4480EAAF
:1007F000010C400218BF5FEA41211ED04FF0006398
:1008000043EA501043EA5111A0FB01310CF00040C3
:10081000B1F5000F3EBF490041EAD3715B0040EAE9
:10082000010062F17F02FD2A1DD8B3F1004F40EBB9
:10083000C25008BF20F00100704790F0000F0CF08C
:10084000004C08BF49024CEA502040EA51207F3A50
:10085000C2BFD2F1FF0340EAC250704740F400002B
:100860004FF00003013A5DDC12F1190FDCBF00F01C
:1008700000407047C2F10002410021FA02F1C2F1CA
:10088000200200FA02FC5FEA310040F1000053EA66
:100890004C0308BF20EADC70704792F0000F00F0B4
:1008A000004C02BF400010F4000F013AF9D040EABA
:1008B0000C0093F0000F01F0004C02BF490011F44E
:1008C000000F013BF9D041EA0C018FE70CEAD1534C
:1008D00092EA0C0F18BF93EA0C0F0AD030F0004CCC
:1008E00018BF31F0004CD8D180EA010000F0004080
:1008F000704790F0000F17BF90F0004F084691F03E
:10090000000F91F0004F14D092EA0C0F01D1420277
:100910000FD193EA0C0F03D14B0218BF084608D140
:1009200080EA010000F0004040F0FE4040F400008A
:10093000704740F0FE4040F4400070474FF0FF0C1D
:100940001CEAD0521EBF1CEAD15392EA0C0F93EA64
:100950000C0F69D0A2EB030280EA010C49024FEAB6
:10096000402037D04FF0805343EA111143EA10136F
:100970000CF000408B4238BF5B0042F17D024FF427
:10098000000C8B4224BF5B1A40EA0C00B3EB510F02
:1009900024BFA3EB510340EA5C00B3EB910F24BFEB
:1009A000A3EB910340EA9C00B3EBD10F24BFA3EB70
:1009B000D10340EADC001B0118BF5FEA1C1CE0D138
:1009C000FD2A3FF650AF8B4240EBC25008BF20F0EB
:1009D000010070470CF0004C4CEA50207F32C2BF3F
:1009E000D2F1FF0340EAC250704740F400004FF0DC
:1009F0000003013A37E792F0000F00F0004C02BF0D
:100A0000400010F4000F013AF9D040EA0C0093F0D6
:100A1000000F01F0004C02BF490011F4000F013B30
:100A2000F9D041EA0C0195E70CEAD15392EA0C0F98
:100A300008D142027FF47DAF93EA0C0F7FF470AFD0
:100A4000084676E793EA0C0F04D14B023FF44CAF13
:100A500008466EE730F0004C18BF31F0004CCAD1A8
:100A600030F000427FF45CAF31F000437FF43CAFE4
:100A70005FE700BF53B94AB9002908BF00281CBF6F
:100A80004FF0FF314FF0FF3000F074B9ADF1080CBA
:100A90006DE904CE00F006F8DDF804E0DDE902239C
:100AA00004B070472DE9F047089E0D46044688467D
:100AB000002B4DD18A42944668D9B2FA82F252B1E3
:100AC00001FA02F3C2F1200120FA01F10CFA02FC52
:100AD00041EA030894404FEA1C45210CB8FBF5FE9F
:100AE0001FFA8CF705FB1E8341EA03430EFB07F157
:100AF00099420BD91CEB03030EF1FF3080F01E81ED
:100B0000994240F21B81AEF1020E63445B1AA4B21B
:100B1000B3FBF5F005FB103344EA034400FB07F791
:100B2000A7420AD91CEB040400F1FF3380F00881CE
:100B3000A74240F2058164440238E41B40EA0E40BB
:100B400000211EB1D4400023C6E90043BDE8F08770
:100B50008B4208D9002E00F0EE800021C6E9000586
:100B60000846BDE8F087B3FA83F100294AD1AB42C9
:100B700002D3824200F2F980841A65EB030301205C
:100B80009846002EE2D0C6E90048DFE702B9FFDE52
:100B9000B2FA82F2002A40F09180A1EB0C054FEAF4
:100BA0001C471FFA8CFE0121B5FBF7F307FB13501E
:100BB000250C45EA00450EFB03F0A84208D91CEBC2
:100BC000050503F1FF3802D2A84200F2CB8043466C
:100BD0002D1AA4B2B5FBF7F007FB105544EA054403
:100BE0000EFB00FEA64508D91CEB040400F1FF35FE
:100BF00002D2A64500F2BB802846A4EB0E0440EAD0
:100C000003409EE7C1F120078B4022FA07FC4CEA23
:100C1000030C20FA07F405FA01F31C43FD404FEAE8
:100C20001C4900FA01F3B5FBF9F8200C1FFA8CFE01
:100C300009FB185540EA054508FB0EF0A84202FAE8
:100C400001F20BD91CEB050508F1FF3A80F0888012
:100C5000A84240F28580A8F1020865442D1AA4B28A
:100C6000B5FBF9F009FB105544EA054500FB0EFE03
:100C7000AE4508D91CEB050500F1FF346CD2AE453A
:100C80006AD90238654440EA0840A0FB0294A5EB0B
:100C90000E05A542C846A64656D353D05EB1B3EB67
:100CA000080265EB0E0505FA07F722FA01F3CD40BD
:100CB0001F43C6E900750021BDE8F087C2F120039B
:100CC00020FA03F10CFA02FC25FA03F395400D43D8
:100CD0004FEA1C471FFA8CFEB3FBF7F107FB1130FC
:100CE0002B0C43EA004301FB0EF0984204FA02F495
:100CF00008D91CEB030301F1FF382FD298422DD9FC
:100D0000023963441B1AADB2B3FBF7F007FB103393
:100D100045EA034500FB0EF3AB4208D91CEB050581
:100D200000F1FF3816D2AB4214D902386544ED1AEF
:100D300040EA014138E73146304607E78646E5E6B6
:100D40001846FAE64B45A9D2B9EB020864EB0C0E43
:100D50000138A3E74046EAE7204694E74146D1E759
:100D6000D0467BE7023B654432E7084609E7644426
:100D7000023842E7704700BF00000000000000009A
:100D800090F800F06DE9024520F007016FF0000CCB
:100D900010F0070491F820F040F049804FF0000473
:100DA0006FF00700D1E9002391F840F000F108004E
:100DB00082FA4CF2A4FA8CF283FA4CF3A2FA8CF386
:100DC0004BBBD1E9022382FA4CF200F10800A4FAED
:100DD0008CF283FA4CF3A2FA8CF3E3B9D1E9042341
:100DE00082FA4CF200F10800A4FA8CF283FA4CF378
:100DF000A2FA8CF37BB9D1E9062301F1200182FA32
:100E00004CF200F10800A4FA8CF283FA4CF3A2FA37
:100E10008CF3002BC6D0002A04BF04301A4612BA45
:100E2000B2FA82F2FDE8024500EBD2007047D1E948
:100E3000002304F00305C4F100004FEAC50514F0D7
:100E4000040F91F840F00CFA05F562EA05021CBFA8
:100E500063EA050362464FF00004A9E700000000C2
:100E600001F0FF01102A2BDB10F0070F08D010F85B
:100E7000013B013A8B422DD010F0070F42B3F6D15F
:100E8000F0B441EA012141EA014122F007047FF078
:100E900000070023F0E80256083C85EA010586EACF
:100EA000010685FA47F5A3FA87F586FA47F6A5FA0B
:100EB00087F68EB9EED1F0BC01F0FF0102F0070217
:100EC00032B110F8013B013A83EA010313B1F8D1C2
:100ED0000020704701387047002D06BF35460338A3
:100EE000073815F0010F07D1013015F4807F02BFDC
:100EF000013015F4C03F0130F0BC0138704700BF2D
:100F0000844641EA000313F003036DD1403A41D314
:100F100051F8043B40F8043B51F8043B40F8043BD3
:100F200051F8043B40F8043B51F8043B40F8043BC3
:100F300051F8043B40F8043B51F8043B40F8043BB3
:100F400051F8043B40F8043B51F8043B40F8043BA3
:100F500051F8043B40F8043B51F8043B40F8043B93
:100F600051F8043B40F8043B51F8043B40F8043B83
:100F700051F8043B40F8043B51F8043B40F8043B73
:100F800051F8043B40F8043B51F8043B40F8043B63
:100F9000403ABDD2303211D351F8043B40F8043B03
:100FA00051F8043B40F8043B51F8043B40F8043B43
:100FB00051F8043B40F8043B103AEDD20C3205D313
:100FC00051F8043B40F8043B043AF9D2043208D00B
:100FD000D2071CBF11F8013B00F8013B01D30B887D
:100FE00003806046704700BF082A13D38B078DD05B
:100FF00010F003038AD0C3F10403D21ADB071CBF2D
:1010000011F8013B00F8013B80D331F8023B20F896
:10101000023B7BE7043AD9D3013A11F8013B00F8CF
:10102000013BF9D20B7803704B7843708B78837057
:101030006046704770B54FF0FF0C4CF4E06C1CEA52
:1010400011541DBF1CEA135594EA0C0F95EA0C0FBE
:1010500000F0DEF82C4481EA030621EA4C5123EA31
:101060004C5350EA013518BF52EA033541F4801160
:1010700043F4801338D0A0FB02CE4FF00005E1FB13
:1010800002E506F00042E0FB03E54FF00006E1FB5D
:1010900003569CF0000F18BF4EF0010EA4F1FF04A0
:1010A000B6F5007F64F5407404D25FEA4E0E6D41E0
:1010B00046EB060642EAC62141EA55514FEAC520F1
:1010C00040EA5E504FEACE2EB4F1FD0C88BFBCF56D
:1010D000E06F1ED8BEF1004F08BF5FEA500E50F11E
:1010E000000041EB045170BD06F0004646EA0101E4
:1010F00040EA020081EA0301B4EB5C04C2BFD4EB16
:101100000C0541EA045170BD41F480114FF0000E0E
:10111000013C00F3AB8014F1360FDEBF002001F07C
:10112000004170BDC4F10004203C35DA0C341BDCF6
:1011300004F11404C4F1200500FA05F320FA04F0C8
:1011400001FA05F240EA020001F0004221F00041FC
:1011500010EBD37021FA04F642EB06015EEA430E6F
:1011600008BF20EAD37070BDC4F10C04C4F120059F
:1011700000FA04F320FA05F001FA04F240EA020052
:1011800001F0004110EBD37041F100015EEA430E23
:1011900008BF20EAD37070BDC4F1200500FA05F243
:1011A0004EEA020E20FA04F301FA05F243EA0203C2
:1011B00021FA04F001F0004121FA04F220EA0200D1
:1011C00000EBD3705EEA430E08BF20EAD37070BD17
:1011D00094F0000F0FD101F00046400041EB0101F7
:1011E00011F4801F08BF013CF7D041EA060195F0D9
:1011F000000F18BF704703F00046520043EB030393
:1012000013F4801F08BF013DF7D043EA060370477F
:1012100094EA0C0F0CEA135518BF95EA0C0F0CD08A
:1012200050EA410618BF52EA4306D1D181EA0301D0
:1012300001F000414FF0000070BD50EA410606BFCA
:101240001046194652EA430619D094EA0C0F02D10F
:1012500050EA013613D195EA0C0F05D152EA033654
:101260001CBF104619460AD181EA030101F0004172
:1012700041F0FE4141F470014FF0000070BD41F0BB
:10128000FE4141F4780170BD70B54FF0FF0C4CF495
:10129000E06C1CEA11541DBF1CEA135594EA0C0FB4
:1012A00095EA0C0F00F0A7F8A4EB050481EA030E01
:1012B00052EA03354FEA013100F088804FEA0333E8
:1012C0004FF0805545EA131343EA12634FEA0222B6
:1012D00045EA111545EA10654FEA00260EF0004177
:1012E0009D4208BF964244F1FD0404F5407402D2C9
:1012F0005B084FEA3202B61A65EB03055B084FEA5A
:1013000032024FF480104FF4002CB6EB020E75EB56
:10131000030E22BFB61A754640EA0C005B084FEA7E
:101320003202B6EB020E75EB030E22BFB61A7546FB
:1013300040EA5C005B084FEA3202B6EB020E75EB46
:10134000030E22BFB61A754640EA9C005B084FEABE
:101350003202B6EB020E75EB030E22BFB61A7546CB
:1013600040EADC0055EA060E18D04FEA051545EABA
:1013700016754FEA06164FEAC30343EA52734FEA63
:10138000C2025FEA1C1CC0D111F4801F0BD141EADC
:1013900000014FF000004FF0004CB6E711F4801F41
:1013A00004BF01430020B4F1FD0C88BFBCF5E06F21
:1013B0003FF6AFAEB5EB030C04BFB6EB020C5FEA31
:1013C000500C50F1000041EB045170BD0EF0004E86
:1013D0004EEA113114EB5C04C2BFD4EB0C0541EAB8
:1013E000045170BD41F480114FF0000E013C90E6B5
:1013F00045EA060E8DE60CEA135594EA0C0F08BF79
:1014000095EA0C0F3FF43BAF94EA0C0F0AD150EA77
:1014100001347FF434AF95EA0C0F7FF425AF10460A
:1014200019462CE795EA0C0F06D152EA03353FF432
:10143000FDAE1046194622E750EA410618BF52EAAF
:1014400043067FF4C5AE50EA41047FF40DAF52EA83
:1014500043057FF4EBAE12E74FF0FF3C06E000BF20
:101460004FF0010C02E000BF4FF0010C4DF804CD2D
:101470004FEA410C7FEA6C5C4FEA430C18BF7FEAED
:101480006C5C1BD001B050EA410C0CBF52EA430C1B
:1014900091EA030F02BF90EA020F0020704710F19B
:1014A000000F91EA030F58BF994208BF90422CBF2A
:1014B000D8176FEAE37040F0010070474FEA410C23
:1014C0007FEA6C5C02D150EA013C07D14FEA430C41
:1014D0007FEA6C5CD6D152EA033CD3D05DF8040BB2
:1014E000704700BF8446104662468C4619466346E4
:1014F00000E000BF01B5FFF7B7FF002848BF10F1BB
:10150000000F01BD4DF808EDFFF7F4FF0CBF0120FF
:1015100000205DF808FB00BF4DF808EDFFF7EAFF7B
:1015200034BF012000205DF808FB00BF4DF808ED36
:10153000FFF7E0FF94BF012000205DF808FB00BF2B
:101540004DF808EDFFF7CEFF94BF012000205DF8B5
:1015500008FB00BF4DF808EDFFF7C4FF34BF0120C2
:1015600000205DF808FB00BF4FEA410C7FEA6C5C8D
:1015700002D150EA013C0AD14FEA430C7FEA6C5C8D
:1015800002D152EA033C02D14FF0000070474FF005
:10159000010070474FEA410212F5001215D211D531
:1015A0006FF47873B3EB625212D94FEAC12343F060
:1015B000004343EA505311F0004F23FA02F018BFE2
:1015C000404270474FF00000704750EA013005D1AB
:1015D00011F0004008BF6FF0004070474FF000006E
:1015E000704700BF10B588B000240394049405949C
:1015F000069407941B4BDA6C42F02002DA64DA6C32
:1016000002F020020092009ADA6C42F00102DA64E1
:10161000DA6C02F001020192019ADA6C42F00202E5
:10162000DA64DB6C03F002030293029B2246402142
:101630004FF0904000F059FD20230393049405944B
:1016400003A94FF0904000F05BFC4023039301237B
:1016500004930594069403A94FF0904000F050FCC9
:1016600008B010BD0010024008B51248124B0360CC
:10167000124B4360002383600122C2600361436117
:101680008361C361036200F0F3FE50B90021094891
:1016900001F0F8F840B90021064801F021F930B90D
:1016A00008BD00F067F8F1E700F064F8F3E700F038
:1016B00061F8F5E74C0B0020005400405D3E3020FF
:1016C000F0B59BB004460021159116911791189121
:1016D0001991442204A805F04DFB2268224B9A423E
:1016E00001D01BB0F0BD4023049304A802F0B4FD68
:1016F000002835D11D4CE36C43F00103E364E36C37
:1017000003F001030193019BE36C43F00203E364E4
:10171000E36C03F002030293029B4FF40043159322
:10172000122716970025179518950426199615A9BE
:101730004FF0904000F0E4FB802315931697179527
:101740001895199615A90A4800F0DAFBA36D43F421
:101750000013A365A36D03F400130393039BC0E779
:1017600000F008F8C6E700BF005400400010024037
:101770000004004872B6FEE700B595B0382200219B
:1017800006A805F0F7FA002301930293039304934C
:1017900005934FF4007002F0C7F8012206924FF44F
:1017A0008033079302230D9303210E910F920C2295
:1017B000109211931293139306A802F06FF978B95F
:1017C0000F230193032302930023039304930593B0
:1017D000012101A802F01AFC20B915B05DF804FB44
:1017E000FFF7C8FFFFF7C6FF80B5ADF5866D00F0C7
:1017F000E5FAFFF7C1FFFFF7F5FEFFF735FF00F051
:1018000049F900F07BF900F0ADF905F01DF8002270
:1018100040214FF0904000F068FC8CAC4FF4007514
:101820002A460021204605F0A5FA4FF4967000F0F4
:10183000E7FA01238C934FF47A7202920193009499
:101840000222A421464800F071FE2A46002109A880
:1018500005F090FA434B09AC0FCB07C4237009A8DD
:10186000FFF78EFA81B209A805F040F820214FF069
:10187000904000F033FC0028F8D120214FF0904038
:1018800000F02CFC0028F8D04FF0FF33029309231E
:101890000193354B009301231422A421304800F01A
:1018A00019FF0028E2D1304C89AB94E8070003C34C
:1018B0001A7080220021204605F05CFA4FF4007275
:1018C000002109A805F056FABDF92402FEF72EFF03
:1018D0002649FFF733F80446BDF92602FEF726FF36
:1018E0002249FFF72BF80646BDF92802FEF71EFF36
:1018F0001E49FFF723F80746BDF92C02FEF716FF35
:101900001A49FFF71BF880469DF82A922046FEF7F9
:10191000FBFD04460D46CDF818904046FEF7F4FD59
:10192000CDE904013846FEF7EFFDCDE9020130466E
:10193000FEF7EAFDCDE9000122462B460C4909A835
:1019400005F06AFA09A8FFF71BFA81B209A804F0AA
:10195000CDFF002389938A93ADF82C3286E700BF30
:101960004C0B002000CC0008980B00200000C8425F
:1019700010CC000800B583B00B4B1A6E42F0010288
:101980001A661A6E02F001020092009A9A6D42F0F5
:1019900080529A659B6D03F080530193019B02F086
:1019A00049F803B05DF804FB00100240FEE7FEE7D3
:1019B000FEE7FEE7FEE770477047704708B500F0A6
:1019C0000DFA08BD08B5024801F06CFD08BD00BF66
:1019D000A41A00200120704708B505F0A1F91623CC
:1019E00003604FF0FF3008BD08B54FF0FF31FFF73F
:1019F000F3FFFEE770B50C461646002506E0AFF390
:101A00000080214601F8010B01350C46B542F6DB9A
:101A1000304670BD70B50C461646002504E014F83B
:101A2000010BAFF300800135B542F8DB304670BDE5
:101A30004FF0FF3070474FF400534B600020704769
:101A4000012070470020704710B503460C4A0D492D
:101A50000D48006840B10C4800680344521A934294
:101A600006D8094A136010BD0748084C0460F2E725
:101A700005F056F90C2303604FF0FF30F3E700BF89
:101A80000080002000040000180C0020002000202E
:101A90007047000008B51748174B03604FF4E13357
:101AA000436000238360C36003610C224261836151
:101AB000C36103624362836202F0EFFF70B90021E9
:101AC0000C4803F062F860B900210A4803F082F87C
:101AD00050B9084803F03AF848B908BDFFF74AFE84
:101AE000EDE7FFF747FEEFE7FFF744FEF1E7FFF70B
:101AF00041FEF2E71C0C00200038014008B51748F1
:101B0000174B03604FF4E133436000238360C360ED
:101B100003610C2242618361C36103624362836299
:101B200002F0BBFF70B900210C4803F02EF860B939
:101B300000210A4803F04EF850B9084803F006F8AF
:101B400048B908BDFFF716FEEDE7FFF713FEEFE714
:101B5000FFF710FEF1E7FFF70DFEF2E7AC0C0020F7
:101B60000044004008B51748174B03604FF4E133B9
:101B7000436000238360C36003610C224261836180
:101B8000C36103624362836202F087FF70B9002180
:101B90000C4802F0FAFF60B900210A4803F01AF875
:101BA00050B9084802F0D2FF48B908BDFFF7E2FD7E
:101BB000EDE7FFF7DFFDEFE7FFF7DCFDF1E7FFF70C
:101BC000D9FDF2E73C0D00200048004010B59CB064
:101BD000044600211791189119911A911B914422E2
:101BE00006A805F0C7F82368464A934207D0464A3C
:101BF000934230D0454A934258D01CB010BD0123C7
:101C0000069306A802F028FB10BB414B1A6E42F463
:101C100080421A661A6E02F480420092009ADA6CD0
:101C200042F00102DA64DB6C03F001030193019BD3
:101C30004FF4C063179302231893002319931A9348
:101C400007231B9317A94FF0904000F059F9D4E7F0
:101C5000FFF790FDD9E70223069306A802F0FCFAED
:101C600008BB2B4B9A6D42F400329A659A6D02F4D0
:101C700000320292029ADA6C42F00102DA64DB6C02
:101C800003F001030393039B0C2317930223189380
:101C9000002319931A9307231B9317A94FF0904021
:101CA00000F02EF9A9E7FFF765FDDAE704230693B4
:101CB00006A802F0D1FA08BB154B9A6D42F48022B7
:101CC0009A659A6D02F480220492049ADA6C42F0CA
:101CD0000202DA64DB6C03F002030593059B4FF408
:101CE0004063179302231893002319931A93072331
:101CF0001B9317A9074800F003F97EE7FFF73AFDA9
:101D0000DAE700BF003801400044004000480040CE
:101D100000100240000400480D4885460D480E4959
:101D20000E4A002302E0D458C4500433C4188C4235
:101D3000F9D30B4A0B4C002301E013600432A2429A
:101D4000FBD3FFF7A5FE04F0F1FFFFF74DFDFEE723
:101D50000080002000000020300B0020E4D00008AC
:101D6000300B002000200020FEE70000104B1B6815
:101D70000BB90120704710B504464FF47A70B0FBE0
:101D8000F3F30C4A1068B0FBF3F000F0A5F868B963
:101D90000F2C01D901200AE0002221464FF0FF302C
:101DA00000F054F8044B1C60002000E0012010BD3E
:101DB00004000020000000200800002010B50320CF
:101DC00000F032F80F20FFF7D1FF10B101242046B8
:101DD00010BD0446FFF7CEFDF9E70000034A136883
:101DE000034909680B441360704700BFCC0D002005
:101DF00004000020014B1868704700BFCC0D002084
:101E000038B50446FFF7F6FF0546B4F1FF3F02D0B0
:101E1000044B1B681C44FFF7EDFF401BA042FAD3A4
:101E200038BD00BF04000020074AD36823F4E063F4
:101E30001B041B0C000200F4E060034343F0BF638B
:101E400043F40033D360704700ED00E000B5194B58
:101E5000DB68C3F30223C3F1070CBCF1040F28BFF6
:101E60004FF0040C03F1040EBEF1060F18D9033B2A
:101E70004FF0FF3E0EFA0CFC21EA0C0199400EFADD
:101E800003F322EA0303194300280BDB0901C9B25B
:101E900000F1604000F5614080F800135DF804FB3C
:101EA0000023E5E700F00F000901C9B2024B195405
:101EB000F4E700BF00ED00E014ED00E0002807DBD0
:101EC00000F01F02400901239340024A42F82030EB
:101ED000704700BF00E100E00138B0F1807F0BD215
:101EE0004FF0E0235861054AF02182F823100020CA
:101EF000986107221A6170470120704700ED00E0E9
:101F000070B582B0002365E085685E000324B440AC
:101F100025EA0405CC68B4402C438460446824EA74
:101F20000C0C4C68C4F300149C4044EA0C0444605C
:101F300061E0DD08083550F8256003F007044FEA3A
:101F4000840C0F2404FA0CF426EA040E0C6904FA3B
:101F50000CF444EA0E0440F8254063E0052400E058
:101F6000002404FA0EF42C430CF1020C574D45F8F2
:101F70002C40574CA568D44325EA0206D1F804C08A
:101F80001CF4801F01D042EA0506514DAE60ED6899
:101F900004EA0506D1F804C01CF4001F01D042EA8F
:101FA00005064B4DEE606D6804EA0506D1F804C0E5
:101FB0001CF4003F01D042EA0506454D6E602D68D5
:101FC0002C404E6816F4803F01D042EA0504404A96
:101FD000146001330A6832FA03F474D04FF0010C34
:101FE0000CFA03FC1CEA0202F3D04C6804F0030470
:101FF000013C012C88D94C6804F00304032C0CD05C
:10200000C4685D004FF0030C0CFA05FC24EA0C0CCC
:102010008C68AC4044EA0C04C4604C6804F00304CF
:10202000022C86D004684FEA430E4FF0030C0CFAE2
:102030000EFC24EA0C0C4C6804F0030404FA0EF4C1
:1020400044EA0C0404604C6814F4403FC1D0214CB5
:10205000256E45F001052566246E04F00104019407
:10206000019C4FEA930C0CF10205184C54F82550D2
:1020700003F003044FEA840E0F2404FA0EF425EA59
:102080000405B0F1904F3FF46BAF134CA04212D057
:1020900004F58064A04210D004F58064A0420ED004
:1020A00004F58064A0420CD004F58064A0423FF4A3
:1020B00055AF062455E7012453E7022451E70324D2
:1020C0004FE704244DE702B070BD00BF000001409F
:1020D0000004014000100240000400480369194256
:1020E00001D001207047002070470AB1816170471C
:1020F0008162704703689A6912F0020F01D00022D2
:102100009A6203689A6912F0010F03D19A6942F04A
:1021100001029A61704710B4019CC1F3090141EAC0
:1021200002411943214321F0004102685368640DC4
:1021300004F4806444F07F7444F4583444F47F74AD
:1021400044F0030423EA04042143516010BC7047A7
:102150002DE9F041044603689F6917F010074CD041
:102160000E4690461022DA6100252368986910F027
:10217000200F3BD1002D39D1B6F1FF3FF5D0FFF74D
:1021800039FEA0EB0800B04201D8002EEDD1216845
:102190004B6803F4804394F84220D2B2886910F46B
:1021A000004F02D00BB9202A18D123689B6913F085
:1021B000200FDAD1FFF71EFEA0EB08001928F4D992
:1021C000636C43F020036364202384F841300023D0
:1021D00084F8423084F840300125E6E74B6843F448
:1021E00080434B60FFF706FE8046DEE7002D40D1BE
:1021F0002022DA610427012500E000252268936986
:1022000013F4807F05D047F001074FF48071D1614E
:10221000012513F4806F06D047F0080722684FF4B9
:102220008061D161012513F4007F24D047F00207BB
:1022300023684FF40072DA6101252046FFF75AFF48
:102240002268536823F0FF7323F48B3323F4FF7366
:1022500023F001035360636C1F436764202384F8F9
:102260004130002384F8423084F840302846BDE8ED
:10227000F0810427C2E7002DF8D0DEE770B50446F0
:102280000D46164623689B6913F0020F1DD1324696
:1022900029462046FFF75CFFC8B9B5F1FF3FF1D0F2
:1022A000FFF7A8FD801BA84201D8002DEAD1636C7E
:1022B00043F020036364202384F84130002384F832
:1022C000423084F84030012000E0002070BD012041
:1022D000FCE72DE9F0410646884617461D4634685E
:1022E000A46938EA04030CBF4FF0010C4FF0000C56
:1022F000BC4518D1B5F1FF3FF1D0FFF77BFD069B40
:10230000C01AA84201D8002DE9D1736C43F0200314
:102310007364202386F84130002386F8423086F823
:102320004030012000E00020BDE8F0812DE9F041BF
:1023300082B0044690461D46089E099F194B0093A3
:102340004FF08073EAB2FFF7E6FE3A463146204688
:10235000FFF794FFF8B9012D0ED123685FFA88F2D8
:102360009A6200973346002280212046FFF7B1FF92
:10237000A8B902B0BDE8F08123684FEA18229A623A
:102380003A4631462046FFF779FF30B923685FFAB5
:1023900088F29A62E5E70120EBE70120E9E70120F6
:1023A000E7E700BF002000802DE9F04182B004463D
:1023B00090461D46089E099F184B00930023EAB2E1
:1023C000FFF7A9FE3A4631462046FFF757FFF8B916
:1023D000012D0ED123685FFA88F29A620097334686
:1023E000002240212046FFF774FFA8B902B0BDE8E3
:1023F000F08123684FEA18229A623A463146204615
:10240000FFF73CFF30B923685FFA88F29A62E5E78C
:102410000120EBE70120E9E70120E7E70020008049
:1024200070B505460C4616462B689B6913F0200FC5
:102430001AD1324621462846FFF78AFEB0B9FFF787
:10244000D9FC801BA04201D8002CEDD16B6C43F06D
:1024500020036B64202385F84130002385F8423047
:1024600085F84030012070BD0020FCE70120FAE72C
:10247000002859D010B5044690F84130002B43D0C5
:10248000242384F841302268136823F00103136089
:102490006368226823F0706313612268936823F4F1
:1024A00000439360E368012B33D0A368226843F4B0
:1024B00004439360E368022B31D02268536843F0F1
:1024C000007343F4004353602268D36823F400434D
:1024D000D360236962691343A169226843EA012337
:1024E000D360E369216A22680B4313602268136892
:1024F00043F00103136000206064202384F841301E
:10250000206384F8420010BD80F84030FFF7D8F80F
:10251000B6E7A368226843F400439360CAE72368E0
:102520004FF400625A60C8E7012070472DE9F04F70
:1025300083B00E46BDF834A00E9D90F84110C9B28C
:10254000202940F0BB800446904699460C9BCBB1B5
:10255000BAF1000F16D090F84030012B00F0B28095
:102560004FF0010B80F840B0FFF744FC07460090A5
:1025700019235A464FF400412046FFF7AAFE30B116
:1025800001209CE04FF400736364012097E0212355
:1025900084F84130402384F84230002363640C9A6D
:1025A0006262A4F82AA06363019700954B464246F5
:1025B00031462046FFF7BAFE70B9638D9BB2FF2B00
:1025C0000FD9FF222285002300934FF080733146FC
:1025D0002046FFF7A0FD21E0002384F84030584654
:1025E0006DE0628D92B22285002300934FF000735C
:1025F000D2B231462046FFF78EFD0FE0628D92B2D7
:102600002285002300934FF00073D2B2314620465A
:10261000FFF781FD638D9BB2002B33D03A462946EC
:102620002046FFF72BFE00284ED1626A23681278FD
:102630009A62636A01336362638D9BB2013B9BB212
:102640006385238D013B9BB22385628D92B2002A64
:10265000E0D0002BDED100972B46002280212046BF
:10266000FFF737FE90BB638D9BB2FF2BC6D9FF22CD
:102670002285002300934FF0807331462046FFF7F8
:102680004AFDC7E73A4629462046FFF7C9FEF8B992
:1026900023682022DA6121684B6823F0FF7323F45A
:1026A0008B3323F4FF7323F001034B6084F8412044
:1026B000002384F8423084F8403000E0022003B068
:1026C000BDE8F08F0220FAE70120F8E70120F6E7E5
:1026D0000120F4E72DE9F04F83B00E46BDF834A099
:1026E0000E9D90F84110C9B2202940F0BC800446EC
:1026F000904699460C9BCBB1BAF1000F16D090F8DA
:102700004030012B00F0B3804FF0010B80F840B057
:10271000FFF770FB0746009019235A464FF400411B
:102720002046FFF7D6FD30B101209DE04FF4007345
:102730006364012098E0222384F84130402384F828
:102740004230002363640C9A6262A4F82AA0636397
:10275000019700954B46424631462046FFF724FE3E
:1027600070B9638D9BB2FF2B0FD9FF222285444B9A
:1027700000934FF0807331462046FFF7CCFC21E0F8
:10278000002384F8403058466EE0628D92B2228574
:102790003B4B00934FF00073D2B231462046FFF717
:1027A000BAFC0FE0628D92B22285002300934FF0B5
:1027B0000073D2B231462046FFF7ADFC638D9BB269
:1027C000002B34D000972B46002204212046FFF72F
:1027D00080FD00284DD123685A6A636A1A70636AC3
:1027E00001336362228D013A92B22285638D9BB2DE
:1027F000013B9BB26385638D9BB2002BDED0002A28
:10280000DCD100972B4680212046FFF762FD90BB6C
:10281000638D9BB2FF2BC5D9FF2222850023009335
:102820004FF0807331462046FFF775FCC6E73A4605
:1028300029462046FFF7F4FDF8B923682022DA6123
:1028400021684B6823F0FF7323F48B3323F4FF7369
:1028500023F001034B6084F84120002384F84230C8
:1028600084F8403000E0022003B0BDE8F08F022081
:10287000FAE70120F8E70120F6E70120F4E700BFBE
:102880000024008090F84130DBB2202B24D190F856
:102890004030012B22D0012380F84030242380F8DF
:1028A00041300268136823F0010313600268136863
:1028B00023F480531360026813681943116002689F
:1028C000136843F001031360202380F84130002394
:1028D00080F8403018467047022070470220704749
:1028E00090F84130DBB2202B22D190F84030012B00
:1028F00020D0012380F84030242380F84130026842
:10290000136823F0010313600268136823F47063F3
:1029100043EA012111600268136843F00103136068
:10292000202380F84130002380F84030184670475B
:10293000022070470220704738B512F4804F43D010
:102940000468B4F8503091F800C04FEACC0E1EFA7B
:1029500083F32344B3F80244C4F309048B69A3420C
:1029600028D31B1B8B618B697BB9056835F82C302C
:102970009BB223F4804323F0700383F4005343F4A9
:10298000004343F0800325F82C3012F0400F0ED0A6
:1029900002680D7832F825309BB223F4E04323F02F
:1029A000700343F4004343F0C00322F8253024B9F8
:1029B000204638BD00238B61D5E723460A89496943
:1029C000006803F056F8F3E70468B4F8503091F863
:1029D00000C04FEACC0E1EFA83F32344B3F806443A
:1029E000C4F309048B69A3422FD31B1B8B618B6932
:1029F0007BB9056835F82C309BB223F4804323F073
:102A0000700383F4005343F4004343F0800325F83C
:102A10002C3012F0400F0FD1026891F800C032F84C
:102A20002C309BB223F4E04323F0700343F40043C3
:102A300043F0C00322F82C30002CB9D023464A8939
:102A40004969006803F015F8B2E700238B61CEE70F
:102A500000286DD030B587B0044690F8A9323BB15C
:102A6000032384F8A932206802F0E2F800231FE073
:102A700080F8A83203F0F8FFF2E75A1C02EB82015B
:102A800004EBC1010120487002EB820104F83130EF
:102A900003EB830104EBC101CB8602EB820C04EB58
:102AA000CC0C00208CF803008863C8630864D3B2A0
:102AB00060688342E1D3002316E003EB830204EB5A
:102AC000C202002182F8691182F8683182F86B1124
:102AD000C2F87811C2F87C1103EB830204EBC20246
:102AE000C2F880110133DBB29842E6D8A4465CF804
:102AF000105BEE46BCE80F00AEE80F00DCF80030DB
:102B0000CEF80030231D0ECB284602F09BF80023A0
:102B100084F82430012384F8A932E369012B02D020
:102B2000002007B030BD204600F0E8FE0020F8E7A6
:102B30000120704790F8A832012B0ED010B5044642
:102B4000012380F8A832006802F069F8206802F0DA
:102B5000BEFB002084F8A80210BD0220704770B5AB
:102B600005460C46164612F0400F00F00981026837
:102B7000B2F850300978C80010FA83F31344B3F860
:102B80000224C2F30902A369934251D99B1AA3619B
:102B9000A369002B68D16378002B4CD12A68B2F866
:102BA000503012FA83F30344B3F8022492B222F4B1
:102BB000F84292B2A3F80224B3F802246FEA424228
:102BC0006FEA524292B2A3F8022429686278002A7E
:102BD0003DD1B1F8503011FA83F3227803EBC203F0
:102BE000B3F8062492B222F4F84292B2A3F8062473
:102BF000B3F806246FEA42426FEA524292B2A3F857
:102C000006242178284603F075FF16F4804F40D043
:102C10002A68217832F821309BB223F4E04323F074
:102C2000700343F4404343F0800322F8213030E046
:102C30000023A361ACE7012BC7D12A68B2F850305A
:102C400012FA83F303440022A3F80224BDE7012A09
:102C5000D7D1B1F8503011FA83F3217803EBC103D7
:102C60000022A3F80624CCE716F4804F0DD0286884
:102C700030F821309BB223F4E04323F0700343F497
:102C8000404343F0800320F8213094F82430012B96
:102C900012D02A68217832F821309BB223F4E04325
:102CA00023F0400383F0300343F4004343F08003F8
:102CB00022F82130002070BD636913446361E36929
:102CC0001344E361216A236999421BD3C91A216223
:102CD0006278002A3FD12968B1F8502011FA82F2B7
:102CE000217802EBC1023E2B18D9590913F01F0FAE
:102CF00000D101396FEAC1616FEA514189B2A2F88E
:102D000002142AE021B9002384F824301346DFE7B7
:102D1000002384F8243023620B46D9E78BB9B2F83C
:102D2000021489B221F4F84189B2A2F80214B2F86F
:102D300002146FEA41416FEA514189B2A2F80214CC
:102D40000BE0590813F0010F00D00131890289B25C
:102D5000A2F8021401E0012A06D09BB2228961691F
:102D6000286802F0C3FA94E72968B1F8502011FAF4
:102D700082F2217802EBC10299B2A2F80214ECE7C8
:102D80000268B2F850300978C80010FA83F313448F
:102D9000B3F80624C2F30902A369934252D39B1AE3
:102DA000A361A369002B69D16378002B4DD12A68F8
:102DB000B2F8503012FA83F31844B0F802349BB2E0
:102DC00023F4F8439BB2A0F80234B0F802346FEA5F
:102DD00043436FEA53439BB2A0F8023429686278F8
:102DE000002A3ED1B1F8503011FA83F3227803EB78
:102DF000C203B3F8062492B222F4F84292B2A3F8C6
:102E00000624B3F806246FEA42426FEA524292B2B5
:102E1000A3F806242178284603F06CFE16F4804FB0
:102E20007FF437AF2A68217832F821309BB223F43F
:102E3000E04323F0700343F4404343F0800322F85F
:102E4000213026E70023A361ABE7012BC6D12A6816
:102E5000B2F8503012FA83F318440023A0F8023479
:102E6000BCE7012AD6D1B1F8503011FA83F32178AA
:102E700003EBC1030022A3F80624CBE716F4804F2E
:102E80000DD1286830F821309BB223F4E04323F0C1
:102E9000700343F4404343F0800320F8213094F85A
:102EA0002430012B7FF4F5AE636913446361E36959
:102EB0001344E361216A236999421BD3C91A216231
:102EC00029686278002A3ED1B1F8502011FA82F2C6
:102ED000217802EBC1023E2B18D9590913F01F0FBC
:102EE00000D101396FEAC1616FEA514189B2A2F89C
:102EF00006142AE021B9002384F824301346DFE7C2
:102F00000023236284F824300B46D9E78BB9B2F84A
:102F1000061489B221F4F84189B2A2F80614B2F875
:102F200006146FEA41416FEA514189B2A2F80614D2
:102F30000BE0590813F0010F00D00131890289B26A
:102F4000A2F8061401E0012A06D09BB262896169E9
:102F5000286802F0CBF99CE6B1F8502011FA82F211
:102F6000217802EBC10299B2A2F80614EDE72DE92F
:102F7000F0410546CAE003889BB223F4E14323F005
:102F800070036FEA43436FEA53439BB2038029689F
:102F9000B1F8503095F82820D20012FA83F30B4490
:102FA000B3F80234C3F309036B64EA6B1344EB63B5
:102FB0000021284603F09EFD95F82430002B00F0F8
:102FC000A5802B6C002B40F0A18095F824302A6856
:102FD00043F08003A2F84C30002385F8243095E0BC
:102FE000B0F8503095F86821D20012FA83F3034408
:102FF000B3F80634C3F30903C5F88431B5F86E217C
:1030000005F52C7102F035FD2A68138823F0700352
:103010001B051B0D43F080031380284603F056FD6B
:1030200074E089B9B3F8062492B222F4F84292B25D
:10303000A3F80624B3F806246FEA42426FEA52422C
:1030400092B2A3F80624BFE04A0811F0010F00D0A5
:103050000132920292B2A3F80624B5E030F824308F
:103060009EB213F4004F40F0BE8016F0800F4DD09A
:10307000621C02EB820105EBC101286830F82430A4
:103080009BB223F4E14323F070036FEA43436FEAFA
:1030900053439BB220F82430CB78022B00F0A78159
:1030A00004EB840305EBC30300221A6493F8343065
:1030B00023B316F0400F00F063814B78002B40F0F3
:1030C0004C812A68B2F8503012FA83F3621C02EB8A
:1030D000820215F8322003EBC203B3F8022492B245
:1030E00022F4F84292B2A3F80224B3F802246FEA61
:1030F00042426FEA524292B2A3F80224013404EB36
:10310000840415F83410284603F0F4FC2868B0F85D
:10311000443013F4004F00F0AE81B0F84440A3B245
:1031200014F00F049AD113F0100F3FF424AF03886A
:103130009AB213F4006F7FF453AF12F4004FE5D04E
:10314000038823F070031B051B0D43F080030380ED
:103150002868B0F8503095F86821D20012FA83F34D
:103160000344B3F80634C3F30903C5F884318BB1C3
:10317000D5F87C1171B1B5F86E2102F07AFCD5F862
:103180008421D5F87C311344C5F87C3100212846D0
:1031900003F0A4FC2B681A8812F4006FB6D1B3F8C0
:1031A000502013FA82F3D5F878113E297FF639AF13
:1031B0004A0911F01F0F00D1013A6FEAC2626FEAAB
:1031C000524292B2A3F806242A6813889BB223F4D1
:1031D000804323F0700383F4405343F4004343F0EF
:1031E0008003138092E730F8243023F070031B052E
:1031F0001B0D43F0800320F8243004EB8401C90048
:1032000001F5B47105EB010804EB840305EBC3037E
:1032100093F87431002B40D12868B0F8503004EB9B
:10322000840205EBC20292F86821D20012FA83F3FD
:103230000344B3F80674C7F3090717BB04EB840310
:1032400005EBC303D3F884213A44C3F88421D3F8AF
:103250007C213A44C3F87C21D3F880313BB104EBA4
:10326000840305EBC303D3F878319F4270D204EB9B
:10327000840305EBC30393F86811284603F02EFC82
:10328000F3E604EB840105EBC1013B46B1F86E2186
:10329000D1F87C1102F0EDFBD0E704EB840305EBE1
:1032A000C30393F86B31022B33D0296804EB8402FB
:1032B00005EBC20292F8680131F820309BB223F48A
:1032C000E04323F0700343F4004343F0C00321F8CC
:1032D0002030286892F8683130F8232012F4804FAB
:1032E0001ED0B0F85020DB0013FA82F30344B3F889
:1032F0000274C7F30907002FA0D004EB840105EB8B
:10330000C1013B46B1F87021D1F87C1102F0B1FB4C
:1033100094E7324641462846FFF70EFB07468DE705
:10332000B0F85020DB0013FA82F30344B3F80674BC
:10333000C7F30907002F81D004EB840105EBC1011D
:103340003B46B1F87221D1F87C1102F092FB75E78F
:103350004146286801F0DDFF87E6012B7FF4CEAE01
:103360002A68B2F8503012FA83F3621C02EB820230
:1033700015F8322003EBC2030022A3F80224BDE6B5
:103380002968631C03EB830305EBC3035A78E2B996
:10339000B1F8503011FA83F3621C02EB820215F887
:1033A000322003EBC203B3F8062492B222F4F842AF
:1033B00092B2A3F80624B3F806246FEA42426FEAF9
:1033C000524292B2A3F8062498E6012A7FF496AE00
:1033D000B1F8503011FA83F3621C02EB820215F847
:1033E000322003EBC2030022A3F8062486E616F47B
:1033F000807F3BD12868B0F85030621C02EB82021B
:1034000015F83260F20012FA83F30344B3F8023481
:10341000C3F3090304EB840205EBC202126C9A4267
:1034200010D904EB840705EBC707D21A3A6404EB02
:10343000840205EBC202126C5AB93146284603F0E9
:1034400059FB63E604EB840205EBC2020027176414
:10345000EDE704EB840205EBC202D66B1E44D66393
:10346000546C2344536401F054FF4FE6324628461F
:10347000FFF775FB4AE60020BDE8F08190F8A8321E
:10348000012B0DD010B50446012380F8A83280F836
:103490002410006801F015FF002084F8A80210BD78
:1034A0000220704710B50446006801F01BFF10F4BD
:1034B000004F23D110F4806F24D110F4804F32D10B
:1034C00010F4005F39D110F4805F40D110F4006F28
:1034D00067D110F0800F40F0818010F4007F40F041
:1034E000AD8010F4807F27D02268B2F844309BB2C0
:1034F00023F480739BB2A2F844301DE02046FFF70E
:1035000036FD19E02268B2F844309BB223F48063A0
:103510009BB2A2F84430204603F0FDFA0021204679
:10352000FFF7ACFF08E02268B2F844309BB223F406
:1035300080439BB2A2F8443010BD2268B2F84430F8
:103540009BB223F400539BB2A2F84430F4E7226804
:10355000B2F840309BB223F004039BB2A2F8403093
:103560002268B2F840309BB223F008039BB2A2F865
:10357000403094F8E032012B0CD0204603F0EEFAF4
:103580002268B2F844309BB223F480539BB2A2F875
:103590004430D1E7002184F8E012204603F096FB86
:1035A000EBE72268B2F840309BB243F00803A2F880
:1035B00040302268B2F844309BB223F400639BB2DF
:1035C000A2F844302268B2F840309BB243F00403C2
:1035D000A2F84030204603F0B1FAADE72268B2F815
:1035E00044309BB223F080039BB2A2F8443094F89D
:1035F000E032FBB92268B2F840309BB243F00403DA
:10360000A2F840302268B2F840309BB243F0080381
:10361000A2F84030012184F8E0122368B3F8543056
:10362000C3F38D0303F03C03C4F8E432204603F0F7
:103630004DFB81E7204603F081FA7DE72268B2F86E
:1036400044309BB223F400739BB2A2F8443020466E
:1036500003F05BFA70E710B504468C4611F0800F5A
:103660002AD101F0070000EB8001C90001F5B47E0A
:1036700004EB0E0100EB800004EBC0004FF0000EE5
:1036800080F869E10CF0070C81F800C00A61CB708A
:103690004A780AB1A1F80EC0022B19D094F8A832CA
:1036A000012B18D0012384F8A832206801F0DBFA3E
:1036B000002084F8A80210BD01F00700013000EBE3
:1036C000800104EBC1014FF0010E81F801E0D9E760
:1036D00000230B71E2E70220EDE710B504460B462C
:1036E00011F0800F1FD101F0070202EB8201C90027
:1036F00001F5B471014402EB820200EBC20200202A
:1037000082F8690103F007030B7094F8A832012BCB
:1037100013D0012384F8A832206801F071FC002046
:1037200084F8A80210BD01F00702013202EB820109
:1037300000EBC10101204870E4E70220F2E710B578
:1037400001F0070404EB8401C90001F5B4710144E0
:1037500004EB840C00EBCC0CCCF87C21CCF8803151
:103760000023CCF884318CF869318CF8684124B995
:10377000006801F0CEFD002010BD006801F0C9FD19
:10378000F9E701F0070101EB810100EBC101D1F87C
:103790008401704710B501F0070404F1010C0CEB33
:1037A0008C0100EBC10104EB840E00EBCE0ECEF8D1
:1037B0003C20CEF8403001228EF84C20CEF8483024
:1037C0000023CEF844304A700CEB8C0C00F83C40DF
:1037D00024B9006801F09DFD002010BD006801F0D3
:1037E00098FDF9E70B4601F0070241688A422AD8A2
:1037F00010B5044613F0800F1DD103EB8301C900FF
:1038000001F5B471014403EB830300EBC303002013
:1038100083F8690101238B700A7094F8A832012B98
:1038200013D0012384F8A832206801F0D4FC0020D2
:1038300084F8A80210BD531C03EB830100EBC10107
:1038400001204870E6E7012070470220F2E70B46AE
:1038500001F00F014268914230D810B5044613F0D0
:10386000800F21D103F0070202EB8201C90001F5AC
:10387000B471014402EB820200EBC202002082F824
:10388000690100228A7003F007030B7094F8A832D4
:10389000012B15D0012384F8A832206801F0C0FC68
:1038A000002084F8A80210BD03F00702013202EBE9
:1038B000820100EBC10101204870E2E7012070475E
:1038C0000220F0E711F0800F0BD001F00701013169
:1038D00001EB810100EBC10152B90A73CB800020DA
:1038E000704701EB8101C90001F5B4710144F3E7B0
:1038F00001220A730B811B0C4B81F0E7034602681F
:103900000121C0F8E812002083F8E002B2F8543038
:103910009BB20B43A2F85430B2F854309BB243F040
:103920000203A2F854307047002836D13E4B1B6882
:1039300003F4C063B3F5806F08D03B4AD2F88030FF
:1039400023F48073C2F8803000207047364AD2F8E2
:10395000803023F48073C2F88030136823F4C0638E
:1039600043F400731360314B1B68322202FB03F3F4
:103970002F4AA2FB03239B0C013300E0013B2A4AA0
:10398000526912F4806F01D0002BF7D1264B5B698E
:1039900013F4806F44D100207047B0F5007F08D049
:1039A000214A136823F4C06343F48063136000204A
:1039B00070471D4B1B6803F4C063B3F5806F08D0DC
:1039C000194AD2F8803043F48073C2F88030002066
:1039D0007047154AD2F8803043F48073C2F88030C3
:1039E000136823F4C06343F4007313600F4B1B6828
:1039F000322202FB03F30E4AA2FB03239B0C01338A
:103A000000E0013B084A526912F4806F01D0002B9C
:103A1000F7D1054B5B6913F4806F03D10020704729
:103A20000320704703207047007000400000002012
:103A300083DE1B43024A936843F4804393607047DC
:103A400000700040124BDA6802F00302D868C0F33D
:103A50000310431C032A11D00E48B0FBF3F00C4BAB
:103A6000DB68C3F3062303FB00F0094BDB68C3F3F9
:103A7000416301335B00B0FBF3F070470648B0FBD5
:103A8000F3F0034BDB68C3F3062303FB00F0ECE722
:103A9000001002400024F40000127A00002800F018
:103AA000548270B582B00446036813F0010F37D01A
:103AB000A44A936803F00C03D26802F003020C2BB3
:103AC00023D0082B23D06368B3F5803F4ED0B3F5E5
:103AD000A02F51D09B4B1A6822F480321A601A68CA
:103AE00022F480221A606368002B52D0FEF782F91C
:103AF0000546944B1B6813F4003F11D1FEF77AF989
:103B0000401B6428F5D9032028E2032AD9D18D4B24
:103B10001B6813F4003F03D06368002B00F017828A
:103B2000236813F0020F5DD0864A936803F00C03FC
:103B3000D26802F003020C2B3AD0042B3AD0E3688F
:103B4000002B75D07F4A136843F480731360FEF72F
:103B500051F905467B4B1B6813F4806F5FD1FEF76C
:103B600049F9401B0228F5D90320F7E1754A13688B
:103B700043F480331360B6E703F18043A3F53C338D
:103B80001A6842F480221A601A6842F480321A607D
:103B9000A9E7FEF72FF905466A4B1B6813F4003FAF
:103BA000BED0FEF727F9401B6428F5D90320D5E1E4
:103BB000022AC2D1634B1B6813F4806F03D0E36801
:103BC000002B00F0C6815F4A536823F0FE43216951
:103BD00043EA016353605C4B1868FEF7C7F800289E
:103BE00040F0B981236813F0080F4CD063699BB390
:103BF000544AD2F8943043F00103C2F89430FEF7EF
:103C0000F9F805464F4BD3F8943013F0020F3AD130
:103C1000FEF7F0F8401B0228F4D903209EE1494A40
:103C2000536823F0FE43216943EA01635360D9E7F7
:103C3000444A136823F480731360FEF7DBF80546EB
:103C4000404B1B6813F4806FCCD0FEF7D3F8401BB9
:103C50000228F5D9032081E13A4AD2F8943023F0C2
:103C60000103C2F89430FEF7C5F80546354BD3F88A
:103C7000943013F0020F06D0FEF7BCF8401B022868
:103C8000F4D903206AE1236813F0040F00F0818067
:103C90002C4B9B6D13F0805F36D12A4B9A6D42F00E
:103CA00080529A659B6D03F080530193019B01251F
:103CB000264B1B6813F4807F28D0A368012B39D0D2
:103CC000052B45D01F4BD3F8902022F00102C3F8FA
:103CD0009020D3F8902022F00402C3F89020A3682B
:103CE000002B43D0FEF786F80646164BD3F89030EB
:103CF00013F0020F4CD1FEF77DF8801B41F28833A0
:103D00009842F2D9032029E10025D1E70F4A136830
:103D100043F480731360FEF76DF806460B4B1B6887
:103D200013F4807FC9D1FEF765F8801B0228F5D90E
:103D3000032013E1034AD2F8903043F00103C2F8A4
:103D40009030CCE7001002400800002000700040D6
:103D50008A4BD3F8902042F00402C3F89020D3F8A5
:103D6000902042F00102C3F89020B8E7FEF742F835
:103D70000646824BD3F8903013F0020F08D0FEF7BE
:103D800039F8801B41F288339842F2D90320E5E0EC
:103D9000E5B9236813F0200F35D0A369E3B1774A62
:103DA000D2F8983043F00103C2F89830FEF722F8B9
:103DB0000546724BD3F8983013F0020F23D1FEF76B
:103DC00019F8401B0228F4D90320C7E06B4A936D11
:103DD00023F080539365DCE7684AD2F8983023F0EB
:103DE0000103C2F89830FEF705F80546634BD3F897
:103DF000983013F0020F06D0FDF7FCFF401B02289D
:103E0000F4D90320AAE0E369002B00F0A6805B4A06
:103E1000926802F00C020C2A69D0022B1DD0574B7D
:103E20001A6822F080721A60DA6822F00302DA60FF
:103E3000DA6822F0887222F48032DA60FDF7DAFF65
:103E400004464E4B1B6813F0007F4ED0FDF7D2FFA7
:103E5000001B0228F5D9032080E0484A136823F0AC
:103E600080731360FDF7C6FF0546444B1B6813F0D3
:103E7000007F06D0FDF7BEFF401B0228F5D90320C6
:103E80006CE03E4AD3683E491940236A606A0138B3
:103E900043EA0013A06A43EA0023206B400801387C
:103EA00043EA4053606B4008013843EA4063E06AEC
:103EB00043EAC0630B43D360136843F0807313601D
:103EC000D36843F08073D360FDF794FF04462B4B17
:103ED0001B6813F0007F06D1FDF78CFF001B022842
:103EE000F5D903203AE0002038E0002036E0012B2D
:103EF00036D0224BDB6803F00301226A914231D1B4
:103F000003F0F002616A0139B2EB011F2CD103F416
:103F1000FE42A16AB2EB012F28D103F07842E16A98
:103F2000B2EBC16F24D103F4C001226B5208013AF5
:103F3000B1EB425F1ED103F0C063626B5208013ADD
:103F4000B3EB426F18D1002008E001207047012038
:103F500004E0012002E0012000E0002002B070BD7A
:103F60000120FBE70120F9E70120F7E70120F5E751
:103F70000120F3E70120F1E70120EFE70010024004
:103F80000C809F011E4B9B6803F00C03042B33D065
:103F90001B4B9B6803F00C03082B2FD0184B9B681E
:103FA00003F00C030C2B01D000207047144BDA688F
:103FB00002F00302D868C0F30310431C032A11D097
:103FC0001048B0FBF3F00E4BDB68C3F3062303FB92
:103FD00000F00B4BDB68C3F3416301335B00B0FBC4
:103FE000F3F070470848B0FBF3F0054BDB68C3F310
:103FF000062303FB00F0ECE70248704702487047D5
:10400000001002400024F40000127A00002800F0A2
:10401000E680F8B50C460546744B1B6803F00F03A9
:104020008B420BD2714A136823F00F030B431360CA
:10403000136803F00F038B4240F0D3802E6816F014
:1040400001065FD06B68032B2FD0022B4DD0684B3D
:104050001B6813F4806F00F0C680FFF793FF654B79
:1040600098424DD9624A936823F0F00343F08003ED
:10407000936080265E4A936823F0030369680B43CC
:104080009360FDF7B7FE0746594B9B6803F00C039E
:104090006A68B3EB820F35D0FDF7ACFEC01B41F26E
:1040A00088339842F0D9032078E0514B1B6813F015
:1040B000007F01D1012071E0FFF7C4FC4D4B984215
:1040C0001AD94B4B9B6813F0F00F05D02E6816F0F1
:1040D0000206CFD0AB688BB9454A936823F0F00352
:1040E00043F0800393608026C4E7414B1B6813F4C0
:1040F000003FB2D1012051E00026BBE70026B9E71E
:104100000026B7E72B6813F0020F48D013F0040F16
:1041100004D0374A936843F4E06393602B6813F04C
:10412000080F06D0324A936823F47C5343F4E063CB
:1041300093602F4A936823F0F003A9680B439360C0
:104140002A4B1B6803F00F03A34230D82B6813F0EF
:10415000040F06D0264A936823F4E063E9680B4312
:1041600093602B6813F0080F07D0214A936823F45B
:104170006053296943EAC1039360FFF703FF1C4BB7
:104180009B68C3F303131C4AD35C03F01F03D8409E
:104190001A4B18601A4B1868FDF7E8FDF8BD802E21
:1041A000CED1134A936823F0F0039360C8E70F4A17
:1041B000136823F00F0323431360FDF71BFE06462D
:1041C0000A4B1B6803F00F03A342BFD0FDF712FE9A
:1041D000801B41F288339842F2D90320DEE70120A8
:1041E00070470120DAE70120D8E700BF0020024035
:1041F0000010024000B4C40448CC000800000020B5
:1042000008000020014B1868704700BF0000002024
:1042100008B5FFF7F7FF054B9B68C3F30223044A79
:10422000D35C03F01F03D84008BD00BF001002405C
:1042300058CC000808B5FFF7E5FF054B9B68C3F3B2
:10424000C223044AD35C03F01F03D84008BD00BF5B
:104250000010024058CC0008F0B583B00446036853
:1042600013F4002F69D0AE4B9B6D13F0805F1ED10D
:10427000AB4B9A6D42F080529A659B6D03F0805370
:104280000193019B0126A74A136843F480731360CE
:10429000FDF7B0FD0546A34B1B6813F4807F08D1E2
:1042A000FDF7A8FD401B0228F5D9032502E00026F2
:1042B000E9E7002545BB9A4BD3F8903013F44073DF
:1042C00015D0226C9A4212D0954AD2F8903023F43D
:1042D0004073D2F8901041F48031C2F89010D2F8B7
:1042E000901021F48031C2F89010C2F8903013F091
:1042F000010F10D145B98A4AD2F8903023F44073A7
:10430000216C0B43C2F89030C6B1854A936D23F0FF
:104310008053936512E0FDF76DFD0746804BD3F89F
:10432000903013F0020FE5D1FDF764FDC01B41F2A0
:1043300088339842F2D90325DCE70025236813F07F
:10434000010F08D0764AD2F8883023F00303616861
:104350000B43C2F88830236813F0020F08D0704A6C
:10436000D2F8883023F00C03A1680B43C2F88830E0
:10437000236813F0040F08D0694AD2F8883023F07C
:104380003003E1680B43C2F88830236813F0080F4C
:1043900008D0634AD2F8883023F0C00321690B4368
:1043A000C2F88830236813F0200F08D05C4AD2F896
:1043B000883023F4406361690B43C2F88830236876
:1043C00013F0400F08D0564AD2F8883023F44053F7
:1043D000A1690B43C2F88830236813F0800F08D01E
:1043E0004F4AD2F8883023F44043E1690B43C2F8C6
:1043F0008830236813F4807F08D0494AD2F8883087
:1044000023F44033216A0B43C2F88830236813F445
:10441000007F08D0424AD2F8883023F44023616AF2
:104420000B43C2F88830236813F4806F0CD03C4AE9
:10443000D2F8883023F44013A16A0B43C2F88830C5
:10444000A36AB3F5801F57D0236813F4006F0CD014
:10445000334AD2F8883023F44003E16A0B43C2F8B0
:104460008830E36AB3F5800F4BD0236813F4805F84
:104470000CD02B4AD2F8883023F04073216B0B43C9
:10448000C2F88830236BB3F1807F3FD0236813F4E8
:10449000005F0CD0224AD2F8883023F04063616B71
:1044A0000B43C2F88830636BB3F1006F33D02368DD
:1044B00013F4804F0CD01A4AD2F8883023F04063AE
:1044C000A16B0B43C2F88830A36BB3F1006F2BD004
:1044D000236813F4004F0CD0114AD2F8883023F02F
:1044E0004053E16B0B43C2F88830E36BB3F1805F5C
:1044F0001FD0284603B0F0BDD36843F48013D360C7
:10450000A2E7D36843F48013D360AEE7D36843F4E3
:104510008013D360BAE7D36843F48013D360C6E74F
:104520000010024000700040D36843F48013D36051
:10453000CEE7D36843F48033D360DAE770B504463E
:10454000016883680269134342691343C2691343D4
:1045500008688B4A024013430B602268536823F4B7
:104560004053E1680B435360A1692268854B9A422E
:1045700001D0236A1943936823F06E4323F4306318
:104580000B4393602268D36A23F00F03616A0B43E5
:10459000D36223687C4A934223D07C4A934234D02E
:1045A0007B4A93424AD07B4A934259D0754A934200
:1045B00068D0102273498B4200F09580E069B0F515
:1045C000004F00F0D280082A00F24F81DFE812F09D
:1045D0001201340110014D0137014D014D014D0112
:1045E0003A0102F55842D2F8882002F00302032A69
:1045F00009D8DFE802F002045C060122DAE70422AF
:10460000D8E70822D6E71022D4E702F5E632D2F83E
:10461000882002F00C020C2A0ED8DFE802F0070D09
:104620000D0D090D0D0D4A0D0D0D0B000022C1E7FA
:104630000422BFE70822BDE71022BBE702F5E432FF
:10464000D2F8882002F03002202A34D004D8A2B355
:10465000102A34D10422ADE7302A32D10822A9E74A
:1046600002F5E232D2F8882002F0C002802A2AD075
:1046700004D852B3402A2AD104229BE7C02A28D169
:10468000082297E702F5C832D2F8882002F4406287
:10469000B2F5006F1FD005D8FAB1B2F5806F1ED108
:1046A000042287E7B2F5406F1BD1082282E702227D
:1046B00080E702227EE702227CE700227AE71022CE
:1046C00078E7102276E7022274E7002272E71022D0
:1046D00070E710226EE702226CE700226AE71022E0
:1046E00068E7102266E7082A00F2AF80DFE802F0F0
:1046F00008AD3BAD38ADADAD05004FF4004004E072
:10470000FFF786FD002800F0A280626A224B33F892
:104710001220B0FBF2F3656805EB4501994200F207
:104720009880B3EB053F00F2968000263346314671
:10473000FCF7A0F9090241EA106100026B08C018F9
:104740002A46334641F10001FCF794F9A0F5407286
:10475000124B9A4200F281802368D860304662E0B2
:10476000FFF710FCCEE70E48CFE7082A77D8DFE83E
:1047700002F0193905763C7676761D00084815E07A
:10478000F369FFCF00800040003801400044004042
:1047900000480040004C004060CC0008FFFC0F00C7
:1047A0000024F400FFF734FD00285AD0626A324B2F
:1047B00033F81230B0FBF3F06268530803EB4000AB
:1047C000B0FBF2F0A0F110024FF6EF739A424AD814
:1047D00083B223F00F03C0F3420018432368D8606C
:1047E000002020E0FFF726FDDEE7FFF7CBFBDBE74D
:1047F000224803E0FFF70CFD002838D0626A1E4B08
:1048000033F81230B0FBF3F0636800EB5300B0FBF9
:10481000F3F0A0F110024FF6EF739A4229D8236803
:1048200080B2D86000200123A4F86A30A4F8683070
:1048300000232367636770BDFFF7FCFCDCE7FFF72D
:10484000A1FBD9E74FF40040D8E70120EBE70020B7
:10485000E9E70120E7E70120E5E70120E3E70120A0
:10486000E1E70020DFE70120DDE70120DBE70020B2
:10487000D9E70120D7E700BF60CC00080024F4008E
:10488000836A13F0010F06D00268536823F40033E3
:10489000C16A0B435360836A13F0020F06D00268AB
:1048A000536823F48033016B0B435360836A13F026
:1048B000040F06D00268536823F48023416B0B4336
:1048C0005360836A13F0080F06D00268536823F41C
:1048D0000043816B0B435360836A13F0100F06D0C3
:1048E0000268936823F48053C16B0B439360836A1F
:1048F00013F0200F06D00268936823F40053016C74
:104900000B439360836A13F0400F0AD00268536828
:1049100023F48013416C0B435360436CB3F5801F49
:104920000BD0836A13F0800F06D00268536823F41B
:104930000023C16C0B43536070470268536823F433
:10494000C003816C0B435360EBE72DE9F843054648
:104950000F4616469946DDF820802C68E46937EA50
:1049600004030CBF4FF0010C4FF0000CB44557D1BD
:10497000B8F1FF3FF1D0FDF73DFAA0EB090040454B
:104980002FD8B8F1000F2CD02B681A6812F0040F42
:10499000E3D0DA6912F4006FDFD04FF400621A62DC
:1049A0002A6852E8003F23F4D07342E8003100291E
:1049B000F6D12A6802F1080353E8003F23F001030F
:1049C000083242E800310029F3D12023C5F88430B1
:1049D000C5F88830C5F88C30002385F88030032076
:1049E0001FE02A6852E8003F23F4D07342E8003108
:1049F0000029F6D12A6802F1080353E8003F23F0AA
:104A00000103083242E800310029F3D12023C5F820
:104A10008430C5F88830002385F88030032000E01A
:104A20000020BDE8F88330B583B004460023C0F809
:104A30008C30FDF7DFF905462268126812F0080F86
:104A40000FD123681B6813F0040F18D12023C4F87A
:104A50008430C4F888300020E06684F8800003B019
:104A600030BD6FF07E430093034600224FF40011E7
:104A70002046FFF76AFF0028E3D00320EFE76FF03E
:104A80007E4300932B4600224FF480012046FFF71F
:104A90005CFF0028DAD00320E1E778B310B50446C4
:104AA000D0F884300BB32423C4F884302268136810
:104AB00023F0010313602046FFF740FD012813D0C7
:104AC000A36ABBB92268536823F4904353602268F9
:104AD000936823F02A0393602268136843F001036C
:104AE00013602046FFF79FFF10BD80F88030FDF770
:104AF0006DF8D8E72046FFF7C3FEE3E701207047D3
:104B0000436E2BB90123A0F86A30A0F868307047D3
:104B100030B403689A68C2F342629968490F094D3C
:104B20006B5CDB00084C615C93FBF1F3A0F86A302E
:104B3000AB5CDB00A25C93FBF2F3A0F8683030BC06
:104B4000704700BF80CC000878CC000890F8803017
:104B5000012B18D0012380F880302423C0F8843042
:104B600003681A68196821F00101196022F00052E7
:104B70000023436601680A602022C0F8842080F880
:104B80008030184670470220704738B590F8803062
:104B9000012B1DD00446012380F880302423C0F867
:104BA000843003681D681A6822F001021A600268E6
:104BB000936823F0604319439160FFF7A1FF2368D6
:104BC0001D602023C4F88430002084F8800038BDA4
:104BD0000220FCE738B590F88030012B1DD0044648
:104BE000012380F880302423C0F8843003681D68D6
:104BF0001A6822F001021A600268936823F0606369
:104C000019439160FFF77CFF23681D602023C4F8DF
:104C10008430002084F8800038BD0220FCE7034681
:104C20000020A3F844004BF68072A3F840207047A0
:104C3000B0F8403023F47E535B045B0CA0F84030A6
:104C40000020704784B0844601A880E80E0001234C
:104C5000ACF840300020ACF84000ACF84400ACF8B0
:104C6000500004B0704710B503460A7830F822C0EF
:104C70001FFA8CFC2CF4EC4C2CF0700C1FFA8CFC02
:104C8000C878032862D8DFE800F0565D025900209A
:104C900048F2800E4CEA0E0C23F822C091F800C0B6
:104CA00033F82C2012B222F4E04222F070024CEAD7
:104CB000020292B242EA0E0223F82C200A7B002A5A
:104CC00040F0C2804A78002A51D0B3F8502013FA3D
:104CD00082F20C7802EBC402B1F806C04FEA5C0C19
:104CE0004FEA4C0CA2F800C40C7833F8242012F0E0
:104CF000400F0CD033F8242092B222F4E04222F08C
:104D0000700242F4004242F0C00223F82420CA7824
:104D1000012A1DD0097833F8212092B222F4E04212
:104D200022F0400282F0200242F4004242F080026F
:104D300023F8212066E04CF4007CA9E74CF4C06C19
:104D40000020A5E74CF4806C0020A1E701209FE73C
:104D5000097833F8212092B222F4E04222F0400296
:104D600042F4004242F0800223F821204AE0B3F8E6
:104D7000502013FA82F20C7802EBC402B1F806C09C
:104D80004FEA5C0C4FEA4C0CA2F804C4B3F8502074
:104D900013FA82F20C7802EBC4020C693E2C32D971
:104DA0004FEA541C14F01F0F01D10CF1FF3C6FEAC5
:104DB000CC6C6FEA5C4C1FFA8CFCA2F806C40C7831
:104DC00033F8242012F4804F0CD033F8242092B210
:104DD00022F4E04222F0700242F4404242F08002AB
:104DE00023F82420097833F8212092B222F480425B
:104DF00022F0700282F4405242F4004242F08002FB
:104E000023F8212010BD8CB9B2F80644A4B224F4D2
:104E1000F844A4B2A2F80644B2F806446FEA444447
:104E20006FEA5444A4B2A2F80644C8E74FEA540C0F
:104E300014F0010F01D00CF1010C4FEA8C2C1FFA79
:104E40008CFCA2F806C4BAE7CA78022A72D00C78A1
:104E500033F8242092B222F4E24222F0700242F4AB
:104E6000004242F0800223F82420B3F8502013FAC5
:104E700082F291F800C002EBCC02B1F808C04FEA10
:104E80005C0C4FEA4C0CA2F800C4B3F8502013FAA3
:104E900082F291F800C002EBCC02B1F80AC04FEAEE
:104EA0005C0C4FEA4C0CA2F804C44A78002A50D19A
:104EB0000C7833F8242012F4804F0CD033F82420DF
:104EC00092B222F4E04222F0700242F4404242F0F8
:104ED000800223F824200C7833F8242012F0400FAD
:104EE0000CD033F8242092B222F4E04222F0700277
:104EF00042F4004242F0C00223F8242091F800C09E
:104F000033F82C2092B222F4804222F0700282F414
:104F1000405248F28004224323F82C20097833F8C9
:104F2000212092B222F4E04222F04002224323F8F0
:104F3000212067E70C7833F8242092B222F4E04273
:104F400022F0700242F4014242F0800223F8242051
:104F50008BE70C7833F8242012F4804F0CD033F810
:104F6000242092B222F4E04222F0700242F4404245
:104F700042F0800223F824200C7833F8242012F029
:104F8000400F0CD033F8242092B222F4E04222F0F9
:104F9000700242F4004242F0C00223F82420CA7892
:104FA000012A1ED00C7833F8242092B222F4E04279
:104FB00022F0400282F0200242F4004242F08002DD
:104FC00023F82420097833F8212092B222F4804279
:104FD00022F0700242F4004242F0800223F82120C5
:104FE00010E70C7833F8242092B222F4E04222F049
:104FF000400242F4004242F0800223F82420E1E71C
:105000000B7B002B46D14B7813B30A7830F8223053
:1050100013F0400F0CD030F822309BB223F4E04361
:1050200023F0700343F4004343F0C00320F8223020
:105030000A7830F822309BB223F4E04323F0400397
:1050400043F4004343F0800320F8223000207047EF
:105050000A7830F8223013F4804F0CD030F8223028
:105060009BB223F4E04323F0700343F4404343F046
:10507000800320F822300A7830F822309BB223F4E3
:10508000804323F0700343F4004343F0800320F88F
:105090002230DBE74B78002B4ED10A7830F82230F3
:1050A00013F4804F0CD030F822309BB223F4E0434D
:1050B00023F0700343F4404343F0800320F8223090
:1050C0000A7830F8223013F0400F0CD030F822303C
:1050D0009BB223F4E04323F0700343F4004343F016
:1050E000C00320F822300A7830F822309BB223F433
:1050F000E04323F0700343F4004343F0C00320F87F
:1051000022300B7830F8232092B222F4804222F031
:10511000700248F2800C42EA0C0220F823200A7840
:1051200030F822309BB223F4E04323F0400343EAFB
:105130000C0320F8223089E70A7830F8223013F483
:10514000804F0CD030F822309BB223F4E04323F0A0
:10515000700343F4404343F0800320F822300A7880
:1051600030F8223013F0400F0CD030F822309BB2D0
:1051700023F4E04323F0700343F4004343F0C003FF
:1051800020F822300A7830F822309BB223F4E04332
:1051900023F0700343F4404343F0800320F82230AF
:1051A0000B7830F8232092B222F4E04222F0400241
:1051B00048F2800C42EA0C0220F823200A7830F8EA
:1051C00022309BB223F4804323F0700343EA0C03A4
:1051D00020F822303AE74B788BB10A7830F8223049
:1051E0009BB223F4E04323F0400383F0100343F425
:1051F000004343F0800320F82230002070470A78F3
:1052000030F822309BB223F4804323F0700383F400
:10521000805343F4004343F0800320F82230ECE74E
:105220000B7B002B4BD14B7833B30A7830F822300C
:1052300013F0400F0CD030F822309BB223F4E0433F
:1052400023F0700343F4004343F0C00320F82230FE
:10525000CB78012B33D00A7830F822309BB223F47C
:10526000E04323F0400383F0200343F4004343F082
:10527000800320F8223022E00A7830F8223013F43C
:10528000804F0CD030F822309BB223F4E04323F05F
:10529000700343F4404343F0800320F822300A783F
:1052A00030F822309BB223F4804323F0700383F460
:1052B000405343F4004343F0800320F822300020A1
:1052C000704711B98023A0F84C3000207047B0F827
:1052D00058306FEA43436FEA53439BB2A0F858300B
:1052E00000207047B0F8440080B2704710B45C1CD6
:1052F0006408024402F5806207E00B78487843EACC
:10530000002322F8023B0231013C002CF5D110BCF5
:10531000704770B505460C464A78012A32D00B7B9F
:10532000002B40F083828B690A69934240F25D82D0
:105330009B1A8B61B5F8503015FA83F3217803EB93
:10534000C1033E2A40F25582510912F01F0F00D1CD
:1053500001396FEAC1616FEA514189B2A3F80614BD
:10536000227835F822309BB223F4804323F0700377
:1053700083F4405343F4004343F0800325F8223084
:10538000002070BD8E6909698E4200D90E46237BCC
:105390002BB3E378022B44D0236A9B1B2362237830
:1053A00035F8231011F0400F00F0DC81002A40F0A6
:1053B000C981B5F8502015FA82F202EBC3033E2EE4
:1053C00040F2A381720916F01F0F00D1013A6FEA73
:1053D000C2626FEA524292B2A3F80624BBE1B6B2AF
:1053E0003346E28861692846FFF780FFB5F8503000
:1053F00015FA83F3227803EBC203A3F80264227840
:1054000035F822309BB223F4E04323F0400383F0CD
:10541000300343F4004343F0800325F8223000209A
:10542000AFE7236A994280F05281227835F8223022
:105430009BB223F4E04323F0700343F4014343F0B1
:10544000800325F82230236A9B1B2362237835F8DA
:10545000232012F0400F00F09D8062788ABBB5F8DF
:10546000502015FA82F202EBC3033E2E0CD97209CA
:1054700016F01F0F00D1013A6FEAC2626FEA524282
:1054800092B2A3F806241EE08EB9B3F8062492B2B5
:1054900022F4F84292B2A3F80624B3F806246FEA85
:1054A00042426FEA524292B2A3F806240BE072081D
:1054B00016F0010F00D00132920292B2A3F8062436
:1054C00001E0012A27D0B3B2628961692846FFF75B
:1054D0000DFF636933446361236A2269934224D9CF
:1054E0009B1B23626378002B40D1B5F8503015FA2E
:1054F00083F3227803EBC2033E2E1AD9720916F009
:105500001F0F00D1013A6FEAC2626FEA524292B2B3
:10551000A3F802242CE0B5F8502015FA82F202EB31
:10552000C303B2B2A3F80624CDE7002222621E46CE
:10553000D8E78EB9B3F8022492B222F4F84292B2BC
:10554000A3F80224B3F802246FEA42426FEA5242FF
:1055500092B2A3F802240BE0720816F0010F00D0FB
:105560000132920292B2A3F8022401E0012B06D08C
:10557000B3B2228961692846FFF7B8FE3FE7B5F864
:10558000503015FA83F3227803EBC203B2B2A3F8CA
:105590000224EDE762788ABBB5F8502015FA82F252
:1055A00002EBC3033E2E0CD9720916F01F0F00D177
:1055B000013A6FEAC2626FEA524292B2A3F8022441
:1055C0001EE08EB9B3F8022492B222F4F84292B2ED
:1055D000A3F80224B3F802246FEA42426FEA52426F
:1055E00092B2A3F802240BE0720816F0010F00D06B
:1055F0000132920292B2A3F8022401E0012A27D0DC
:10560000B3B2228961692846FFF770FE63693344AB
:105610006361236A2269934224D99B1B23626378C6
:10562000002B40D1B5F8503015FA83F3227803EB04
:10563000C2033E2E1AD9720916F01F0F00D1013A8B
:105640006FEAC2626FEA524292B2A3F806242CE0DB
:10565000B5F8502015FA82F202EBC303B2B2A3F8F8
:105660000224CDE7002222621E46D8E78EB9B3F8A5
:10567000062492B222F4F84292B2A3F80624B3F8B8
:1056800006246FEA42426FEA524292B2A3F806241D
:105690000BE0720816F0010F00D00132920292B2B4
:1056A000A3F8062401E0012B06D0B3B26289616938
:1056B0002846FFF71BFEA2E6B5F8503015FA83F333
:1056C000227803EBC203B2B2A3F80624EDE72178F7
:1056D00035F8212092B222F4E24222F0700242F424
:1056E000004242F0800225F82120B5F8502015FA3A
:1056F00082F2217802EBC1029BB2A2F80234228925
:1057000061692846FFF7F2FD79E68EB9B3F8062401
:1057100092B222F4F84292B2A3F80624B3F8062417
:105720006FEA42426FEA524292B2A3F8062412E0B4
:10573000720816F0010F00D00132920292B2A3F863
:10574000062408E0B5F8502015FA82F202EBC303F4
:10575000B2B2A3F80624B3B2628961692846FFF7A2
:10576000C5FD4CE68ABBB5F8502015FA82F202EB73
:10577000C3033E2E0CD9720916F01F0F00D1013A57
:105780006FEAC2626FEA524292B2A3F8022425E0A5
:105790008EB9B3F8022492B222F4F84292B2A3F87E
:1057A0000224B3F802246FEA42426FEA524292B2F4
:1057B000A3F8022412E0720816F0010F00D00132A3
:1057C000920292B2A3F8022408E0B5F8502015FA2C
:1057D00082F202EBC303B2B2A3F80224B3B222896D
:1057E00061692846FFF782FD09E600228A611A46B0
:1057F000A0E58AB9B3F8062492B222F4F84292B234
:10580000A3F80624B3F806246FEA42426FEA524234
:1058100092B2A3F80624A3E5510812F0010F00D0BC
:105820000131890289B2A3F8061499E5CB78022BDD
:105830003BD0012B40F01B8189692369994240F2DA
:10584000CA80C91AA161AAB9B5F8502015FA82F226
:10585000217802EBC1023E2B40F2C180590913F0BE
:105860001F0F00D101396FEAC1616FEA514189B25E
:10587000A2F802146278002A40F0EB80B5F85020BC
:1058800015FA82F2217802EBC1023E2B40F2C4806D
:10589000590913F01F0F00D101396FEAC1636FEA94
:1058A00053439BB2A2F806345AE5AAB9B0F8503077
:1058B00010FA83F30A7803EBC20309693E2925D95C
:1058C0004A0911F01F0F00D1013A6FEAC2626FEA74
:1058D000524292B2A3F802246378002B50D1B5F85B
:1058E000503015FA83F3227803EBC20321693E2975
:1058F00029D94A0911F01F0F00D1013A6FEAC2629B
:105900006FEA524292B2A3F806243BE089B9B3F899
:10591000022492B222F4F84292B2A3F80224B3F81D
:1059200002246FEA42426FEA524292B2A3F8022482
:10593000D2E74A0811F0010F00D00132920292B270
:10594000A3F80224C8E789B9B3F8062492B222F476
:10595000F84292B2A3F80624B3F806246FEA424252
:105960006FEA524292B2A3F806240BE04A0811F003
:10597000010F00D00132920292B2A3F8062401E096
:10598000012B1DD0E369002B3FF4EAAC227835F8F7
:10599000221044F2400303EA01008B4302D00028A6
:1059A0007FF4DEAC35F822309BB223F4E04323F0E1
:1059B000700343F4004343F0C00325F82230CFE4E2
:1059C000B5F8503015FA83F3227803EBC203228A2C
:1059D000A3F80624D6E70023A3610B4633E78BB96F
:1059E000B2F8021489B221F4F84189B2A2F8021483
:1059F000B2F802146FEA41416FEA514189B2A2F84C
:105A0000021437E7590813F0010F00D00131890261
:105A100089B2A2F802142DE78BB9B2F806349BB212
:105A200023F4F8439BB2A2F80634B2F806346FEAC6
:105A300043436FEA53439BB2A2F8063490E45908FB
:105A400013F0010F00D001318B029BB2A2F8063493
:105A500086E4012A7FF484ACB5F8502015FA82F26E
:105A6000217802EBC1029BB2A2F8063478E401204F
:105A700087E410B45C08104400F5806007E030F85B
:105A8000022B0A70C2F307224A700231013C002C3B
:105A9000F5D113F0010F01D003880B7010BC7047D3
:105AA00010B5D0F8BC4284B1D0F8C0327BB194F8C4
:105AB0000002FF280DD09B6894F8012221469847E8
:105AC000FF2384F80032002010BD0320FCE70020F3
:105AD000FAE70020F8E700004323038000487047FE
:105AE00044000020432303800048704788000020C2
:105AF0004323038000487047D80000200A23038016
